{
  "_format": "hh-sol-artifact-1",
  "contractName": "MemeTrue",
  "sourceName": "contracts/MemeTrue.sol",
  "abi": [
    {
      "anonymous": false,
      "inputs": [
        {
          "indexed": true,
          "internalType": "uint256",
          "name": "marketId",
          "type": "uint256"
        },
        {
          "indexed": true,
          "internalType": "address",
          "name": "creator",
          "type": "address"
        },
        {
          "indexed": false,
          "internalType": "uint256",
          "name": "endTime",
          "type": "uint256"
        },
        {
          "indexed": false,
          "internalType": "string",
          "name": "metadata",
          "type": "string"
        }
      ],
      "name": "MarketCreated",
      "type": "event"
    },
    {
      "anonymous": false,
      "inputs": [
        {
          "indexed": true,
          "internalType": "uint256",
          "name": "marketId",
          "type": "uint256"
        },
        {
          "indexed": true,
          "internalType": "address",
          "name": "creator",
          "type": "address"
        },
        {
          "indexed": false,
          "internalType": "uint256",
          "name": "creatorReward",
          "type": "uint256"
        }
      ],
      "name": "RewardsDistributed",
      "type": "event"
    },
    {
      "anonymous": false,
      "inputs": [
        {
          "indexed": true,
          "internalType": "uint256",
          "name": "marketId",
          "type": "uint256"
        },
        {
          "indexed": true,
          "internalType": "address",
          "name": "voter",
          "type": "address"
        },
        {
          "indexed": false,
          "internalType": "bool",
          "name": "vote",
          "type": "bool"
        }
      ],
      "name": "VoteCast",
      "type": "event"
    },
    {
      "inputs": [
        {
          "internalType": "string",
          "name": "metadata",
          "type": "string"
        }
      ],
      "name": "createMarket",
      "outputs": [],
      "stateMutability": "nonpayable",
      "type": "function"
    },
    {
      "inputs": [],
      "name": "creatorRewardPercentage",
      "outputs": [
        {
          "internalType": "uint256",
          "name": "",
          "type": "uint256"
        }
      ],
      "stateMutability": "view",
      "type": "function"
    },
    {
      "inputs": [
        {
          "internalType": "uint256",
          "name": "marketId",
          "type": "uint256"
        }
      ],
      "name": "getMarket",
      "outputs": [
        {
          "internalType": "address",
          "name": "creator",
          "type": "address"
        },
        {
          "internalType": "uint256",
          "name": "endTime",
          "type": "uint256"
        },
        {
          "internalType": "uint256",
          "name": "yesVotes",
          "type": "uint256"
        },
        {
          "internalType": "uint256",
          "name": "noVotes",
          "type": "uint256"
        },
        {
          "internalType": "uint256",
          "name": "totalStaked",
          "type": "uint256"
        },
        {
          "internalType": "bool",
          "name": "isActive",
          "type": "bool"
        },
        {
          "internalType": "string",
          "name": "metadata",
          "type": "string"
        }
      ],
      "stateMutability": "view",
      "type": "function"
    },
    {
      "inputs": [],
      "name": "getMarketCount",
      "outputs": [
        {
          "internalType": "uint256",
          "name": "",
          "type": "uint256"
        }
      ],
      "stateMutability": "view",
      "type": "function"
    },
    {
      "inputs": [],
      "name": "marketCount",
      "outputs": [
        {
          "internalType": "uint256",
          "name": "",
          "type": "uint256"
        }
      ],
      "stateMutability": "view",
      "type": "function"
    },
    {
      "inputs": [
        {
          "internalType": "uint256",
          "name": "",
          "type": "uint256"
        }
      ],
      "name": "markets",
      "outputs": [
        {
          "internalType": "address",
          "name": "creator",
          "type": "address"
        },
        {
          "internalType": "uint256",
          "name": "endTime",
          "type": "uint256"
        },
        {
          "internalType": "uint256",
          "name": "creatorFee",
          "type": "uint256"
        },
        {
          "internalType": "uint256",
          "name": "yesVotes",
          "type": "uint256"
        },
        {
          "internalType": "uint256",
          "name": "noVotes",
          "type": "uint256"
        },
        {
          "internalType": "uint256",
          "name": "totalStaked",
          "type": "uint256"
        },
        {
          "internalType": "bool",
          "name": "isActive",
          "type": "bool"
        },
        {
          "internalType": "string",
          "name": "metadata",
          "type": "string"
        }
      ],
      "stateMutability": "view",
      "type": "function"
    },
    {
      "inputs": [
        {
          "internalType": "uint256",
          "name": "marketId",
          "type": "uint256"
        }
      ],
      "name": "releaseRewards",
      "outputs": [],
      "stateMutability": "nonpayable",
      "type": "function"
    },
    {
      "inputs": [
        {
          "internalType": "uint256",
          "name": "marketId",
          "type": "uint256"
        },
        {
          "internalType": "bool",
          "name": "voteYes",
          "type": "bool"
        }
      ],
      "name": "vote",
      "outputs": [],
      "stateMutability": "payable",
      "type": "function"
    },
    {
      "inputs": [],
      "name": "voteCost",
      "outputs": [
        {
          "internalType": "uint256",
          "name": "",
          "type": "uint256"
        }
      ],
      "stateMutability": "view",
      "type": "function"
    }
  ],
  "bytecode": "0x608060405266038d7ea4c680006002556005600355348015601f57600080fd5b506118b78061002f6000396000f3fe6080604052600436106100865760003560e01c8063ce52682f11610059578063ce52682f1461013f578063eb44fdd31461016a578063ec979082146101ad578063f8703bb8146101d8578063fd69f3c21461020157610086565b80634c1b8ffd1461008b57806354888f55146100b6578063b1283e77146100df578063c9d27afe14610123575b600080fd5b34801561009757600080fd5b506100a061022c565b6040516100ad9190610cc7565b60405180910390f35b3480156100c257600080fd5b506100dd60048036038101906100d89190610e3c565b610232565b005b3480156100eb57600080fd5b5061010660048036038101906101019190610eb1565b610346565b60405161011a989796959493929190610fb9565b60405180910390f35b61013d6004803603810190610138919061106a565b610443565b005b34801561014b57600080fd5b506101546107f2565b6040516101619190610cc7565b60405180910390f35b34801561017657600080fd5b50610191600480360381019061018c9190610eb1565b6107f8565b6040516101a497969594939291906110aa565b60405180910390f35b3480156101b957600080fd5b506101c2610955565b6040516101cf9190610cc7565b60405180910390f35b3480156101e457600080fd5b506101ff60048036038101906101fa9190610eb1565b61095b565b005b34801561020d57600080fd5b50610216610ca5565b6040516102239190610cc7565b60405180910390f35b60025481565b600061546042610242919061114f565b9050600060016000805481526020019081526020016000209050338160000160006101000a81548173ffffffffffffffffffffffffffffffffffffffff021916908373ffffffffffffffffffffffffffffffffffffffff16021790555081816001018190555060018160060160006101000a81548160ff021916908315150217905550828160070190816102d6919061138f565b503373ffffffffffffffffffffffffffffffffffffffff166000547fa4d588c3d819c6ec039821807da14727a5772a15f4ccb5b5a3327c9202559d108486604051610322929190611461565b60405180910390a360008081548092919061033c90611491565b9190505550505050565b60016020528060005260406000206000915090508060000160009054906101000a900473ffffffffffffffffffffffffffffffffffffffff16908060010154908060020154908060030154908060040154908060050154908060060160009054906101000a900460ff16908060070180546103c0906111b2565b80601f01602080910402602001604051908101604052809291908181526020018280546103ec906111b2565b80156104395780601f1061040e57610100808354040283529160200191610439565b820191906000526020600020905b81548152906001019060200180831161041c57829003601f168201915b5050505050905088565b816000548110610488576040517f08c379a000000000000000000000000000000000000000000000000000000000815260040161047f90611525565b60405180910390fd5b826001600082815260200190815260200160002060060160009054906101000a900460ff166104ec576040517f08c379a00000000000000000000000000000000000000000000000000000000081526004016104e390611591565b60405180910390fd5b60006001600086815260200190815260200160002090506002543414610547576040517f08c379a000000000000000000000000000000000000000000000000000000000815260040161053e906115fd565b60405180910390fd5b8060080160003373ffffffffffffffffffffffffffffffffffffffff1673ffffffffffffffffffffffffffffffffffffffff16815260200190815260200160002060009054906101000a900460ff16156105d6576040517f08c379a00000000000000000000000000000000000000000000000000000000081526004016105cd90611669565b60405180910390fd5b806001015442111561061d576040517f08c379a0000000000000000000000000000000000000000000000000000000008152600401610614906116d5565b60405180910390fd5b60018160080160003373ffffffffffffffffffffffffffffffffffffffff1673ffffffffffffffffffffffffffffffffffffffff16815260200190815260200160002060006101000a81548160ff0219169083151502179055503481600501600082825461068b919061114f565b92505081905550831561071c578060030160008154809291906106ad90611491565b919050555080600901339080600181540180825580915050600190039060005260206000200160009091909190916101000a81548173ffffffffffffffffffffffffffffffffffffffff021916908373ffffffffffffffffffffffffffffffffffffffff16021790555061079c565b80600401600081548092919061073190611491565b919050555080600a01339080600181540180825580915050600190039060005260206000200160009091909190916101000a81548173ffffffffffffffffffffffffffffffffffffffff021916908373ffffffffffffffffffffffffffffffffffffffff1602179055505b3373ffffffffffffffffffffffffffffffffffffffff16857fe71fcdac32df1877c1700e7bda2a03157e20993363a28fc35ac495cefc76e4d4866040516107e391906116f5565b60405180910390a35050505050565b60035481565b6000806000806000806060876000548110610848576040517f08c379a000000000000000000000000000000000000000000000000000000000815260040161083f90611525565b60405180910390fd5b6000600160008b815260200190815260200160002090508060000160009054906101000a900473ffffffffffffffffffffffffffffffffffffffff1681600101548260030154836004015484600501548560060160009054906101000a900460ff16866007018080546108ba906111b2565b80601f01602080910402602001604051908101604052809291908181526020018280546108e6906111b2565b80156109335780601f1061090857610100808354040283529160200191610933565b820191906000526020600020905b81548152906001019060200180831161091657829003601f168201915b5050505050905098509850985098509850985098505050919395979092949650565b60005481565b8060005481106109a0576040517f08c379a000000000000000000000000000000000000000000000000000000000815260040161099790611525565b60405180910390fd5b816001600082815260200190815260200160002060060160009054906101000a900460ff16610a04576040517f08c379a00000000000000000000000000000000000000000000000000000000081526004016109fb90611591565b60405180910390fd5b600060016000858152602001908152602001600020905080600101544211610a61576040517f08c379a0000000000000000000000000000000000000000000000000000000008152600401610a589061175c565b60405180910390fd5b60008160060160006101000a81548160ff0219169083151502179055506000816005015490506000606460035483610a99919061177c565b610aa391906117ed565b905060008183610ab3919061181e565b9050600084600401548560030154119050600081610ad45785600a01610ad9565b856009015b9050600082610aec578660040154610af2565b86600301545b90506000808211610b04576000610b11565b8185610b1091906117ed565b5b905060005b8380549050811015610bb9576000848281548110610b3757610b36611852565b5b9060005260206000200160009054906101000a900473ffffffffffffffffffffffffffffffffffffffff1690508073ffffffffffffffffffffffffffffffffffffffff166108fc849081150290604051600060405180830381858888f19350505050158015610baa573d6000803e3d6000fd5b50508080600101915050610b16565b508760000160009054906101000a900473ffffffffffffffffffffffffffffffffffffffff1673ffffffffffffffffffffffffffffffffffffffff166108fc879081150290604051600060405180830381858888f19350505050158015610c24573d6000803e3d6000fd5b508760000160009054906101000a900473ffffffffffffffffffffffffffffffffffffffff1673ffffffffffffffffffffffffffffffffffffffff168b7f4cbfa67f54cf0255619787991cb52aa46c0d3ee5cfabb0abf659f2b310f4748588604051610c909190610cc7565b60405180910390a35050505050505050505050565b60008054905090565b6000819050919050565b610cc181610cae565b82525050565b6000602082019050610cdc6000830184610cb8565b92915050565b6000604051905090565b600080fd5b600080fd5b600080fd5b600080fd5b6000601f19601f8301169050919050565b7f4e487b7100000000000000000000000000000000000000000000000000000000600052604160045260246000fd5b610d4982610d00565b810181811067ffffffffffffffff82111715610d6857610d67610d11565b5b80604052505050565b6000610d7b610ce2565b9050610d878282610d40565b919050565b600067ffffffffffffffff821115610da757610da6610d11565b5b610db082610d00565b9050602081019050919050565b82818337600083830152505050565b6000610ddf610dda84610d8c565b610d71565b905082815260208101848484011115610dfb57610dfa610cfb565b5b610e06848285610dbd565b509392505050565b600082601f830112610e2357610e22610cf6565b5b8135610e33848260208601610dcc565b91505092915050565b600060208284031215610e5257610e51610cec565b5b600082013567ffffffffffffffff811115610e7057610e6f610cf1565b5b610e7c84828501610e0e565b91505092915050565b610e8e81610cae565b8114610e9957600080fd5b50565b600081359050610eab81610e85565b92915050565b600060208284031215610ec757610ec6610cec565b5b6000610ed584828501610e9c565b91505092915050565b600073ffffffffffffffffffffffffffffffffffffffff82169050919050565b6000610f0982610ede565b9050919050565b610f1981610efe565b82525050565b60008115159050919050565b610f3481610f1f565b82525050565b600081519050919050565b600082825260208201905092915050565b60005b83811015610f74578082015181840152602081019050610f59565b60008484015250505050565b6000610f8b82610f3a565b610f958185610f45565b9350610fa5818560208601610f56565b610fae81610d00565b840191505092915050565b600061010082019050610fcf600083018b610f10565b610fdc602083018a610cb8565b610fe96040830189610cb8565b610ff66060830188610cb8565b6110036080830187610cb8565b61101060a0830186610cb8565b61101d60c0830185610f2b565b81810360e083015261102f8184610f80565b90509998505050505050505050565b61104781610f1f565b811461105257600080fd5b50565b6000813590506110648161103e565b92915050565b6000806040838503121561108157611080610cec565b5b600061108f85828601610e9c565b92505060206110a085828601611055565b9150509250929050565b600060e0820190506110bf600083018a610f10565b6110cc6020830189610cb8565b6110d96040830188610cb8565b6110e66060830187610cb8565b6110f36080830186610cb8565b61110060a0830185610f2b565b81810360c08301526111128184610f80565b905098975050505050505050565b7f4e487b7100000000000000000000000000000000000000000000000000000000600052601160045260246000fd5b600061115a82610cae565b915061116583610cae565b925082820190508082111561117d5761117c611120565b5b92915050565b7f4e487b7100000000000000000000000000000000000000000000000000000000600052602260045260246000fd5b600060028204905060018216806111ca57607f821691505b6020821081036111dd576111dc611183565b5b50919050565b60008190508160005260206000209050919050565b60006020601f8301049050919050565b600082821b905092915050565b6000600883026112457fffffffffffffffffffffffffffffffffffffffffffffffffffffffffffffffff82611208565b61124f8683611208565b95508019841693508086168417925050509392505050565b6000819050919050565b600061128c61128761128284610cae565b611267565b610cae565b9050919050565b6000819050919050565b6112a683611271565b6112ba6112b282611293565b848454611215565b825550505050565b600090565b6112cf6112c2565b6112da81848461129d565b505050565b5b818110156112fe576112f36000826112c7565b6001810190506112e0565b5050565b601f82111561134357611314816111e3565b61131d846111f8565b8101602085101561132c578190505b611340611338856111f8565b8301826112df565b50505b505050565b600082821c905092915050565b600061136660001984600802611348565b1980831691505092915050565b600061137f8383611355565b9150826002028217905092915050565b61139882610f3a565b67ffffffffffffffff8111156113b1576113b0610d11565b5b6113bb82546111b2565b6113c6828285611302565b600060209050601f8311600181146113f957600084156113e7578287015190505b6113f18582611373565b865550611459565b601f198416611407866111e3565b60005b8281101561142f5784890151825560018201915060208501945060208101905061140a565b8683101561144c5784890151611448601f891682611355565b8355505b6001600288020188555050505b505050505050565b60006040820190506114766000830185610cb8565b81810360208301526114888184610f80565b90509392505050565b600061149c82610cae565b91507fffffffffffffffffffffffffffffffffffffffffffffffffffffffffffffffff82036114ce576114cd611120565b5b600182019050919050565b7f4d61726b657420646f6573206e6f742065786973740000000000000000000000600082015250565b600061150f601583610f45565b915061151a826114d9565b602082019050919050565b6000602082019050818103600083015261153e81611502565b9050919050565b7f4d61726b6574206973206e6f7420616374697665000000000000000000000000600082015250565b600061157b601483610f45565b915061158682611545565b602082019050919050565b600060208201905081810360008301526115aa8161156e565b9050919050565b7f496e636f727265637420766f74696e6720666565000000000000000000000000600082015250565b60006115e7601483610f45565b91506115f2826115b1565b602082019050919050565b60006020820190508181036000830152611616816115da565b9050919050565b7f596f75206861766520616c726561647920766f74656400000000000000000000600082015250565b6000611653601683610f45565b915061165e8261161d565b602082019050919050565b6000602082019050818103600083015261168281611646565b9050919050565b7f566f74696e6720706572696f6420656e64656400000000000000000000000000600082015250565b60006116bf601383610f45565b91506116ca82611689565b602082019050919050565b600060208201905081810360008301526116ee816116b2565b9050919050565b600060208201905061170a6000830184610f2b565b92915050565b7f4d61726b6574206973207374696c6c2061637469766500000000000000000000600082015250565b6000611746601683610f45565b915061175182611710565b602082019050919050565b6000602082019050818103600083015261177581611739565b9050919050565b600061178782610cae565b915061179283610cae565b92508282026117a081610cae565b915082820484148315176117b7576117b6611120565b5b5092915050565b7f4e487b7100000000000000000000000000000000000000000000000000000000600052601260045260246000fd5b60006117f882610cae565b915061180383610cae565b925082611813576118126117be565b5b828204905092915050565b600061182982610cae565b915061183483610cae565b925082820390508181111561184c5761184b611120565b5b92915050565b7f4e487b7100000000000000000000000000000000000000000000000000000000600052603260045260246000fdfea2646970667358221220f76774b8c23e6ad6290edf82fa61205368f412c6e787521d749469adedf5150664736f6c634300081b0033",
  "linkReferences": {},
  "deployedLinkReferences": {}
}