{
  "_format": "hh-sol-artifact-1",
  "contractName": "MemeTrue",
  "sourceName": "contracts/MemeTrue.sol",
  "abi": [
    {
      "anonymous": false,
      "inputs": [
        {
          "indexed": true,
          "internalType": "uint256",
          "name": "marketId",
          "type": "uint256"
        },
        {
          "indexed": true,
          "internalType": "address",
          "name": "creator",
          "type": "address"
        },
        {
          "indexed": false,
          "internalType": "uint256",
          "name": "endTime",
          "type": "uint256"
        },
        {
          "indexed": false,
          "internalType": "string",
          "name": "metadata",
          "type": "string"
        }
      ],
      "name": "MarketCreated",
      "type": "event"
    },
    {
      "anonymous": false,
      "inputs": [
        {
          "indexed": true,
          "internalType": "uint256",
          "name": "marketId",
          "type": "uint256"
        },
        {
          "indexed": true,
          "internalType": "address",
          "name": "creator",
          "type": "address"
        },
        {
          "indexed": false,
          "internalType": "uint256",
          "name": "creatorReward",
          "type": "uint256"
        }
      ],
      "name": "RewardsDistributed",
      "type": "event"
    },
    {
      "anonymous": false,
      "inputs": [
        {
          "indexed": true,
          "internalType": "uint256",
          "name": "marketId",
          "type": "uint256"
        },
        {
          "indexed": true,
          "internalType": "address",
          "name": "voter",
          "type": "address"
        },
        {
          "indexed": false,
          "internalType": "bool",
          "name": "vote",
          "type": "bool"
        }
      ],
      "name": "VoteCast",
      "type": "event"
    },
    {
      "inputs": [
        {
          "internalType": "string",
          "name": "metadata",
          "type": "string"
        }
      ],
      "name": "createMarket",
      "outputs": [],
      "stateMutability": "nonpayable",
      "type": "function"
    },
    {
      "inputs": [],
      "name": "creatorRewardPercentage",
      "outputs": [
        {
          "internalType": "uint256",
          "name": "",
          "type": "uint256"
        }
      ],
      "stateMutability": "view",
      "type": "function"
    },
    {
      "inputs": [
        {
          "internalType": "uint256",
          "name": "marketId",
          "type": "uint256"
        }
      ],
      "name": "getMarket",
      "outputs": [
        {
          "internalType": "address",
          "name": "creator",
          "type": "address"
        },
        {
          "internalType": "uint256",
          "name": "endTime",
          "type": "uint256"
        },
        {
          "internalType": "uint256",
          "name": "yesVotes",
          "type": "uint256"
        },
        {
          "internalType": "uint256",
          "name": "noVotes",
          "type": "uint256"
        },
        {
          "internalType": "uint256",
          "name": "totalStaked",
          "type": "uint256"
        },
        {
          "internalType": "bool",
          "name": "isActive",
          "type": "bool"
        },
        {
          "internalType": "string",
          "name": "metadata",
          "type": "string"
        }
      ],
      "stateMutability": "view",
      "type": "function"
    },
    {
      "inputs": [],
      "name": "marketCount",
      "outputs": [
        {
          "internalType": "uint256",
          "name": "",
          "type": "uint256"
        }
      ],
      "stateMutability": "view",
      "type": "function"
    },
    {
      "inputs": [
        {
          "internalType": "uint256",
          "name": "",
          "type": "uint256"
        }
      ],
      "name": "markets",
      "outputs": [
        {
          "internalType": "address",
          "name": "creator",
          "type": "address"
        },
        {
          "internalType": "uint256",
          "name": "endTime",
          "type": "uint256"
        },
        {
          "internalType": "uint256",
          "name": "creatorFee",
          "type": "uint256"
        },
        {
          "internalType": "uint256",
          "name": "yesVotes",
          "type": "uint256"
        },
        {
          "internalType": "uint256",
          "name": "noVotes",
          "type": "uint256"
        },
        {
          "internalType": "uint256",
          "name": "totalStaked",
          "type": "uint256"
        },
        {
          "internalType": "bool",
          "name": "isActive",
          "type": "bool"
        },
        {
          "internalType": "string",
          "name": "metadata",
          "type": "string"
        }
      ],
      "stateMutability": "view",
      "type": "function"
    },
    {
      "inputs": [
        {
          "internalType": "uint256",
          "name": "marketId",
          "type": "uint256"
        }
      ],
      "name": "releaseRewards",
      "outputs": [],
      "stateMutability": "nonpayable",
      "type": "function"
    },
    {
      "inputs": [
        {
          "internalType": "uint256",
          "name": "marketId",
          "type": "uint256"
        },
        {
          "internalType": "bool",
          "name": "voteYes",
          "type": "bool"
        }
      ],
      "name": "vote",
      "outputs": [],
      "stateMutability": "payable",
      "type": "function"
    },
    {
      "inputs": [],
      "name": "voteCost",
      "outputs": [
        {
          "internalType": "uint256",
          "name": "",
          "type": "uint256"
        }
      ],
      "stateMutability": "view",
      "type": "function"
    }
  ],
  "bytecode": "0x608060405266038d7ea4c680006002556005600355348015601f57600080fd5b506118788061002f6000396000f3fe60806040526004361061007b5760003560e01c8063ce52682f1161004e578063ce52682f14610134578063eb44fdd31461015f578063ec979082146101a2578063f8703bb8146101cd5761007b565b80634c1b8ffd1461008057806354888f55146100ab578063b1283e77146100d4578063c9d27afe14610118575b600080fd5b34801561008c57600080fd5b506100956101f6565b6040516100a29190610c88565b60405180910390f35b3480156100b757600080fd5b506100d260048036038101906100cd9190610dfd565b6101fc565b005b3480156100e057600080fd5b506100fb60048036038101906100f69190610e72565b610310565b60405161010f989796959493929190610f7a565b60405180910390f35b610132600480360381019061012d919061102b565b61040d565b005b34801561014057600080fd5b506101496107bc565b6040516101569190610c88565b60405180910390f35b34801561016b57600080fd5b5061018660048036038101906101819190610e72565b6107c2565b604051610199979695949392919061106b565b60405180910390f35b3480156101ae57600080fd5b506101b761091f565b6040516101c49190610c88565b60405180910390f35b3480156101d957600080fd5b506101f460048036038101906101ef9190610e72565b610925565b005b60025481565b60006154604261020c9190611110565b9050600060016000805481526020019081526020016000209050338160000160006101000a81548173ffffffffffffffffffffffffffffffffffffffff021916908373ffffffffffffffffffffffffffffffffffffffff16021790555081816001018190555060018160060160006101000a81548160ff021916908315150217905550828160070190816102a09190611350565b503373ffffffffffffffffffffffffffffffffffffffff166000547fa4d588c3d819c6ec039821807da14727a5772a15f4ccb5b5a3327c9202559d1084866040516102ec929190611422565b60405180910390a360008081548092919061030690611452565b9190505550505050565b60016020528060005260406000206000915090508060000160009054906101000a900473ffffffffffffffffffffffffffffffffffffffff16908060010154908060020154908060030154908060040154908060050154908060060160009054906101000a900460ff169080600701805461038a90611173565b80601f01602080910402602001604051908101604052809291908181526020018280546103b690611173565b80156104035780601f106103d857610100808354040283529160200191610403565b820191906000526020600020905b8154815290600101906020018083116103e657829003601f168201915b5050505050905088565b816000548110610452576040517f08c379a0000000000000000000000000000000000000000000000000000000008152600401610449906114e6565b60405180910390fd5b826001600082815260200190815260200160002060060160009054906101000a900460ff166104b6576040517f08c379a00000000000000000000000000000000000000000000000000000000081526004016104ad90611552565b60405180910390fd5b60006001600086815260200190815260200160002090506002543414610511576040517f08c379a0000000000000000000000000000000000000000000000000000000008152600401610508906115be565b60405180910390fd5b8060080160003373ffffffffffffffffffffffffffffffffffffffff1673ffffffffffffffffffffffffffffffffffffffff16815260200190815260200160002060009054906101000a900460ff16156105a0576040517f08c379a00000000000000000000000000000000000000000000000000000000081526004016105979061162a565b60405180910390fd5b80600101544211156105e7576040517f08c379a00000000000000000000000000000000000000000000000000000000081526004016105de90611696565b60405180910390fd5b60018160080160003373ffffffffffffffffffffffffffffffffffffffff1673ffffffffffffffffffffffffffffffffffffffff16815260200190815260200160002060006101000a81548160ff021916908315150217905550348160050160008282546106559190611110565b9250508190555083156106e65780600301600081548092919061067790611452565b919050555080600901339080600181540180825580915050600190039060005260206000200160009091909190916101000a81548173ffffffffffffffffffffffffffffffffffffffff021916908373ffffffffffffffffffffffffffffffffffffffff160217905550610766565b8060040160008154809291906106fb90611452565b919050555080600a01339080600181540180825580915050600190039060005260206000200160009091909190916101000a81548173ffffffffffffffffffffffffffffffffffffffff021916908373ffffffffffffffffffffffffffffffffffffffff1602179055505b3373ffffffffffffffffffffffffffffffffffffffff16857fe71fcdac32df1877c1700e7bda2a03157e20993363a28fc35ac495cefc76e4d4866040516107ad91906116b6565b60405180910390a35050505050565b60035481565b6000806000806000806060876000548110610812576040517f08c379a0000000000000000000000000000000000000000000000000000000008152600401610809906114e6565b60405180910390fd5b6000600160008b815260200190815260200160002090508060000160009054906101000a900473ffffffffffffffffffffffffffffffffffffffff1681600101548260030154836004015484600501548560060160009054906101000a900460ff168660070180805461088490611173565b80601f01602080910402602001604051908101604052809291908181526020018280546108b090611173565b80156108fd5780601f106108d2576101008083540402835291602001916108fd565b820191906000526020600020905b8154815290600101906020018083116108e057829003601f168201915b5050505050905098509850985098509850985098505050919395979092949650565b60005481565b80600054811061096a576040517f08c379a0000000000000000000000000000000000000000000000000000000008152600401610961906114e6565b60405180910390fd5b816001600082815260200190815260200160002060060160009054906101000a900460ff166109ce576040517f08c379a00000000000000000000000000000000000000000000000000000000081526004016109c590611552565b60405180910390fd5b600060016000858152602001908152602001600020905080600101544211610a2b576040517f08c379a0000000000000000000000000000000000000000000000000000000008152600401610a229061171d565b60405180910390fd5b60008160060160006101000a81548160ff0219169083151502179055506000816005015490506000606460035483610a63919061173d565b610a6d91906117ae565b905060008183610a7d91906117df565b9050600084600401548560030154119050600081610a9e5785600a01610aa3565b856009015b9050600082610ab6578660040154610abc565b86600301545b90506000808211610ace576000610adb565b8185610ada91906117ae565b5b905060005b8380549050811015610b83576000848281548110610b0157610b00611813565b5b9060005260206000200160009054906101000a900473ffffffffffffffffffffffffffffffffffffffff1690508073ffffffffffffffffffffffffffffffffffffffff166108fc849081150290604051600060405180830381858888f19350505050158015610b74573d6000803e3d6000fd5b50508080600101915050610ae0565b508760000160009054906101000a900473ffffffffffffffffffffffffffffffffffffffff1673ffffffffffffffffffffffffffffffffffffffff166108fc879081150290604051600060405180830381858888f19350505050158015610bee573d6000803e3d6000fd5b508760000160009054906101000a900473ffffffffffffffffffffffffffffffffffffffff1673ffffffffffffffffffffffffffffffffffffffff168b7f4cbfa67f54cf0255619787991cb52aa46c0d3ee5cfabb0abf659f2b310f4748588604051610c5a9190610c88565b60405180910390a35050505050505050505050565b6000819050919050565b610c8281610c6f565b82525050565b6000602082019050610c9d6000830184610c79565b92915050565b6000604051905090565b600080fd5b600080fd5b600080fd5b600080fd5b6000601f19601f8301169050919050565b7f4e487b7100000000000000000000000000000000000000000000000000000000600052604160045260246000fd5b610d0a82610cc1565b810181811067ffffffffffffffff82111715610d2957610d28610cd2565b5b80604052505050565b6000610d3c610ca3565b9050610d488282610d01565b919050565b600067ffffffffffffffff821115610d6857610d67610cd2565b5b610d7182610cc1565b9050602081019050919050565b82818337600083830152505050565b6000610da0610d9b84610d4d565b610d32565b905082815260208101848484011115610dbc57610dbb610cbc565b5b610dc7848285610d7e565b509392505050565b600082601f830112610de457610de3610cb7565b5b8135610df4848260208601610d8d565b91505092915050565b600060208284031215610e1357610e12610cad565b5b600082013567ffffffffffffffff811115610e3157610e30610cb2565b5b610e3d84828501610dcf565b91505092915050565b610e4f81610c6f565b8114610e5a57600080fd5b50565b600081359050610e6c81610e46565b92915050565b600060208284031215610e8857610e87610cad565b5b6000610e9684828501610e5d565b91505092915050565b600073ffffffffffffffffffffffffffffffffffffffff82169050919050565b6000610eca82610e9f565b9050919050565b610eda81610ebf565b82525050565b60008115159050919050565b610ef581610ee0565b82525050565b600081519050919050565b600082825260208201905092915050565b60005b83811015610f35578082015181840152602081019050610f1a565b60008484015250505050565b6000610f4c82610efb565b610f568185610f06565b9350610f66818560208601610f17565b610f6f81610cc1565b840191505092915050565b600061010082019050610f90600083018b610ed1565b610f9d602083018a610c79565b610faa6040830189610c79565b610fb76060830188610c79565b610fc46080830187610c79565b610fd160a0830186610c79565b610fde60c0830185610eec565b81810360e0830152610ff08184610f41565b90509998505050505050505050565b61100881610ee0565b811461101357600080fd5b50565b60008135905061102581610fff565b92915050565b6000806040838503121561104257611041610cad565b5b600061105085828601610e5d565b925050602061106185828601611016565b9150509250929050565b600060e082019050611080600083018a610ed1565b61108d6020830189610c79565b61109a6040830188610c79565b6110a76060830187610c79565b6110b46080830186610c79565b6110c160a0830185610eec565b81810360c08301526110d38184610f41565b905098975050505050505050565b7f4e487b7100000000000000000000000000000000000000000000000000000000600052601160045260246000fd5b600061111b82610c6f565b915061112683610c6f565b925082820190508082111561113e5761113d6110e1565b5b92915050565b7f4e487b7100000000000000000000000000000000000000000000000000000000600052602260045260246000fd5b6000600282049050600182168061118b57607f821691505b60208210810361119e5761119d611144565b5b50919050565b60008190508160005260206000209050919050565b60006020601f8301049050919050565b600082821b905092915050565b6000600883026112067fffffffffffffffffffffffffffffffffffffffffffffffffffffffffffffffff826111c9565b61121086836111c9565b95508019841693508086168417925050509392505050565b6000819050919050565b600061124d61124861124384610c6f565b611228565b610c6f565b9050919050565b6000819050919050565b61126783611232565b61127b61127382611254565b8484546111d6565b825550505050565b600090565b611290611283565b61129b81848461125e565b505050565b5b818110156112bf576112b4600082611288565b6001810190506112a1565b5050565b601f821115611304576112d5816111a4565b6112de846111b9565b810160208510156112ed578190505b6113016112f9856111b9565b8301826112a0565b50505b505050565b600082821c905092915050565b600061132760001984600802611309565b1980831691505092915050565b60006113408383611316565b9150826002028217905092915050565b61135982610efb565b67ffffffffffffffff81111561137257611371610cd2565b5b61137c8254611173565b6113878282856112c3565b600060209050601f8311600181146113ba57600084156113a8578287015190505b6113b28582611334565b86555061141a565b601f1984166113c8866111a4565b60005b828110156113f0578489015182556001820191506020850194506020810190506113cb565b8683101561140d5784890151611409601f891682611316565b8355505b6001600288020188555050505b505050505050565b60006040820190506114376000830185610c79565b81810360208301526114498184610f41565b90509392505050565b600061145d82610c6f565b91507fffffffffffffffffffffffffffffffffffffffffffffffffffffffffffffffff820361148f5761148e6110e1565b5b600182019050919050565b7f4d61726b657420646f6573206e6f742065786973740000000000000000000000600082015250565b60006114d0601583610f06565b91506114db8261149a565b602082019050919050565b600060208201905081810360008301526114ff816114c3565b9050919050565b7f4d61726b6574206973206e6f7420616374697665000000000000000000000000600082015250565b600061153c601483610f06565b915061154782611506565b602082019050919050565b6000602082019050818103600083015261156b8161152f565b9050919050565b7f496e636f727265637420766f74696e6720666565000000000000000000000000600082015250565b60006115a8601483610f06565b91506115b382611572565b602082019050919050565b600060208201905081810360008301526115d78161159b565b9050919050565b7f596f75206861766520616c726561647920766f74656400000000000000000000600082015250565b6000611614601683610f06565b915061161f826115de565b602082019050919050565b6000602082019050818103600083015261164381611607565b9050919050565b7f566f74696e6720706572696f6420656e64656400000000000000000000000000600082015250565b6000611680601383610f06565b915061168b8261164a565b602082019050919050565b600060208201905081810360008301526116af81611673565b9050919050565b60006020820190506116cb6000830184610eec565b92915050565b7f4d61726b6574206973207374696c6c2061637469766500000000000000000000600082015250565b6000611707601683610f06565b9150611712826116d1565b602082019050919050565b60006020820190508181036000830152611736816116fa565b9050919050565b600061174882610c6f565b915061175383610c6f565b925082820261176181610c6f565b91508282048414831517611778576117776110e1565b5b5092915050565b7f4e487b7100000000000000000000000000000000000000000000000000000000600052601260045260246000fd5b60006117b982610c6f565b91506117c483610c6f565b9250826117d4576117d361177f565b5b828204905092915050565b60006117ea82610c6f565b91506117f583610c6f565b925082820390508181111561180d5761180c6110e1565b5b92915050565b7f4e487b7100000000000000000000000000000000000000000000000000000000600052603260045260246000fdfea26469706673582212200e1b06fd86ffdb8bfd20793ed48b2ddb0458abc29db8e09523eebcc01ad0a29a64736f6c634300081b0033",
  "linkReferences": {},
  "deployedLinkReferences": {}
}